:100000000C943E000C9476000C945B000C945B0006
:100010000C945B000C945B000C945B000C945B00F4
:100020000C945B000C945B000C945B000C945B00E4
:100030000C945B000C945D000C945B000C945B00D2
:100040000C945B000C945B000C945B000C945B00C4
:100050000C945B000C945B000C945B000C945B00B4
:100060000C945B000C945B000C945B000C945B00A4
:100070000C945B000C945B000C945B0011241FBE7D
:10008000CFEFD8E0DEBFCDBF11E0A0E0B1E0E6E801
:10009000F2E002C005900D92A230B107D9F721E03D
:1000A000A2E0B1E001C01D92A430B207E1F70E94C6
:1000B000C7000C9441010C9400001F920F920FB6E0
:1000C0000F9211248F93809102018F5F8093020120
:1000D00080910201883718F081E080930301B09A83
:1000E0008F910F900FBE0F901F9018951F920F9237
:1000F0000FB60F9211248F939F934A9B13C08FE5E5
:100100009AEE0197F1F700C000004A9B03C081E01E
:1001100080930001E09A9F918F910F900FBE0F90F6
:100120001F90189510920001F5CF109203011092C4
:1001300002011092850010928400909389008093B0
:10014000880080EC80938000E1E8F0E080818860A6
:1001500080838081856080831092820082E080931A
:100160006F000895F89411B88FEF84B91AB8E89A1F
:10017000E9E6F0E08081816080837894089582E0F0
:1001800085B9089581E085B9089515B808950E944C
:10019000B20085E090E032E021E035B94FEF50E762
:1001A00062E0415050406040E1F700C0000025B9D6
:1001B0004FEF50E762E0415050406040E1F700C02F
:1001C0000000019751F7C1E0D2E080910001813039
:1001D000E1F38DE093E00E9495008091030181118D
:1001E00004C0809100018823C1F3F894C5B96FEF72
:1001F00084E39CE0615080409040E1F700C0000043
:1002000015B82FEF33ED40E3215030404040E1F787
:1002100000C0000020E080910201422F50E086954E
:1002200090E048175907B4F4D5B98FE79AE136E062
:10023000815090403040E1F700C0000015B84FE712
:100240005AE166E0415050406040E1F700C00000D4
:100250002F5FE1CFC5B98FEF90E722E0815090404A
:100260002040E1F700C00000D5B93FEF40E752E081
:10027000315040405040E1F700C0000015B878947C
:06028000A4CFF894FFCFAB
:02028600010075
:00000001FF
