:100000000C943F000C9467000C9467000C946700FC
:100010000C9467000C9467000C9467000C946700C4
:100020000C9467000C9467000C9467000C946700B4
:100030000C9467000C9467000C9467000C946700A4
:100040000C9467000C9467000C9467000C94670094
:100050000C9467000C9467000C9467000C94670084
:100060000C9467000C9467000C9467000C94670074
:100070000C9467000C9467000C9467008D021124A7
:100080001FBECFEFD8E0DEBFCDBF11E0A0E0B1E0F2
:10009000E2E1FBE002C005900D92A431B107D9F76F
:1000A00021E0A4E1B1E001C01D92A831B207E1F75F
:1000B00010E0CFE3D0E004C02197FE010E94970238
:1000C000CE33D107C9F70E9457020C9487050C94D0
:1000D00000000F931F93CF93DF931F92CDB7DEB72E
:1000E0008C01CE0101960E94F0000A3421E0120733
:1000F00058F5CE0101960E94430166E9CE010196B2
:100100000E94F2008FEF90E722E081509040204063
:10011000E1F700C000000A5411400F31110570F4DE
:1001200066E9CE0101960E94F2009FEF20E782E08F
:10013000915020408040E1F700C000000F90DF9117
:10014000CF911F910F910895093681E0180718F398
:10015000CE0101960E94570166E9CE0101960E94E8
:10016000F2009FEF20E782E0915020408040E1F7CD
:10017000D0CF10927C0086E880937A000895109288
:100180007A00089580917C00807E80937C0080912D
:100190007C006770682B60937C0080917A0080649B
:1001A00080937A0080917A0084FFFCCF80917A005E
:1001B000806180937A00209178008091790090E0AE
:1001C000982F8827820F911D08958AB1806F8AB970
:1001D00084E191E00E94B70186E191E00C94B701BF
:1001E0000C94E500CF93C62F80E38BB984E191E0B6
:1001F0000E94CF016C2F86E191E0CF910C94CF014A
:100200001BB886E191E00E94E80184E191E00C9442
:10021000E801CF93C62F80EF8BB984E191E00E9473
:10022000CF016C2F86E191E0CF910C94CF0180EB50
:100230008BB968EC84E191E00E94CF0168EC86E123
:1002400091E00E94CF012FE781E397E121508040A8
:100250009040E1F700C00000089580E78BB968EC9A
:1002600084E191E00E94CF0168EC86E191E00E9478
:10027000CF012FE781E397E1215080409040E1F7E3
:1002800000C00000089580EB8BB964E684E191E042
:100290000E94CF012FEF80E792E0215080409040F4
:1002A000E1F700C0000084E191E00C94E80180E7F0
:1002B0008BB964E686E191E00E94CF012FEF80E7E1
:1002C00092E0215080409040E1F700C00000089586
:1002D000FC0160830895FC018081813041F028F0A9
:1002E000823039F0833039F0089582E082B982E0BB
:1002F00085B982E088B982E08BB90895FC018081DC
:10030000813041F028F0823039F0833039F008959F
:1003100081E082B981E085B981E088B981E08BB95B
:100320000895FC018081813039F028F0823029F075
:10033000833021F0089512B815B818B81BB8089585
:10034000CF93DF93EC010E946B018FE697E1019759
:10035000F1F700C00000CE010E947E018FEA96E313
:100360000197F1F700C00000DF91CF91089510923E
:10037000850010928400E1E8F0E080818560808350
:10038000E0E8F0E0808181608083EFE6F0E080814A
:10039000866080830895FC0160830C94B701FC01A2
:1003A000808170E0882351F0809180008068809384
:1003B0008000709389006093880008958091800088
:1003C00080628093800070938B0060938A00089510
:1003D000FC018081882331F0809180008F778093A9
:1003E00080000895809180008F7DF9CF1092C50024
:1003F0008FEC8093C4001092C00088E18093C1000C
:1004000086E08093C20008950C94F6018091C000AC
:1004100085FFFCCF6093C60008958091C00087FFE0
:10042000FCCF8091C6000895CF92DF92EF92FF92A9
:100430000F931F93CF93DF93CDB7DEB7C456D10987
:100440000FB6F894DEBF0FBECDBF7C017F936F93D4
:1004500081E091E09F938F938E010F5F1F4F1F9359
:100460000F930E949D026E0185E1C80ED11C0F9072
:100470000F900F900F900F900F90F80161918F01E6
:1004800070E0C7010E9406020C151D05B1F7CC599A
:10049000DF4F0FB6F894DEBF0FBECDBFDF91CF9117
:1004A0001F910F91FF90EF90DF90CF900895CF9321
:1004B000DF9300D000D0CDB7DEB784B18FEF84B921
:1004C000CE0104960E94B900CE0103960E94F0006E
:1004D000CE0102960E94040261E0CE0101960E94C4
:1004E000680117E604E662E0CE0104960E94C200AD
:1004F0007C0160E0CE0104960E94C2008E159F052B
:1005000048F00093000120910001243661F70E9419
:100510006900E9CF10930001F6CF61E086E191E038
:100520000E94CB0160E084E191E00C94CB01EE0FDE
:10053000FF1F0590F491E02D0994AEE0B0E0E3EAEE
:10054000F2E00C945E050D891E8986E08C831A8387
:1005500009838FEF9FE79E838D83AE01475E5F4FD8
:100560006F89788DCE0101960E94C0022F81388557
:10057000020F131FF80110822E96E4E00C947A0506
:10058000ABE0B0E0E6ECF2E00C9450057C013B01FE
:100590008A01FC0117821682838181FFDAC1CE01B4
:1005A00001965C01F7019381F30193FD859193FF1F
:1005B00081913F01882309F42FC1853239F493FDDD
:1005C000859193FF81913F01853229F4B70190E035
:1005D0000E94C204E7CF912C212C312CFFE1F315AE
:1005E00038F08B32D9F090F48032D9F0833249F16F
:1005F00037FC41C020ED280F2A3070F536FE24C0AC
:100600008AE0989E200D1124922E0EC08D32A9F002
:10061000803371F7232D2160322E06C0832D826036
:10062000382EE32DE4603E2EF30193FD859193FF78
:1006300081913F018111D2CF1EC0F32DF8603F2E72
:10064000F3CF232D2061E8CFEAE02E9E200D112468
:10065000222EF32DF062F3CF8E3229F436FCDCC06B
:10066000232D2064D9CF8C3621F4832D8068382E39
:10067000DBCF8836C9F2982F9F7D95549330D8F000
:100680008336C9F18337E9F1833509F068C0280161
:1006900022E0420E511CF801C080D18036FE45C0D8
:1006A000692D70E0C6010E94AC044C01F32DF06886
:1006B0003F2E82010BC00C5F1F4F9FE3998388245C
:1006C0008394912C6501F32DFF773F2E33FC05C0F9
:1006D000822D90E08816990658F1522C81149104CD
:1006E00071F5552009F45ECFB70180E290E00E94D9
:1006F000C2045A94F6CFF801808189830E5F1F4FA0
:10070000DECF2801F2E04F0E511CF801C080D180ED
:1007100036FE08C0692D70E0C6010E94B7044C0186
:100720008201D1CF6FEF7FEFF7CF6FEF7FEFBACFBF
:10073000B70180E290E00E94C2042A94C9CFF6017A
:1007400037FC859137FE81916F01B70190E00E94DF
:10075000C20451105A9421E0821A9108BFCF843606
:1007600011F08936C1F5F80137FE2CC06081718126
:10077000828193810C5F1F4FF32DFF763F2E97FFF1
:1007800009C090958095709561957F4F8F4F9F4FD1
:10079000F0683F2E2AE030E0A5010E94F204C82E46
:1007A000CA1836FE62C0232D2E7F422EC91408F0CF
:1007B0009BC034FE05C032FC03C0832D8E7E482EC4
:1007C000892C55C060817181072E000C880B990B14
:1007D0000E5F1F4FD1CF8537B9F4232D2F7ED22E38
:1007E0002AE030E0F801D7FE39C060817181828152
:1007F00093810C5F1F4FA5010E94F204C82ECA18F6
:10080000FD2DFF773F2ECDCF932D997FD92E8F369B
:1008100011F148F48835B9F0F701868197812B965C
:10082000E2E10C946C05803751F08837A9F7D4FECB
:1008300003C0FD2DF460DF2E20E130E0D3CFE92F9F
:10084000E061DE2EF4CF34FE03C0292F2660D22EC5
:1008500020E132E0C7CF28E030E0C4CF6081718171
:1008600080E090E00E5F1F4FC6CF8C2C432C44FEDF
:1008700044C0FE01EC0DF11D80818033B9F5942D4B
:10088000997E492EE42DE8705E2E43FC44C040FE64
:100890003EC0821408F044C02C0C922C981844FEE0
:1008A00044C0B70180E390E00E94C20442FE07C04A
:1008B00041FC38C088E790E0B7010E94C204C91427
:1008C00008F440C0CA94D12CFFEFCF1ADF0ACA0C3B
:1008D000DB1CF60182916F01B70190E00E94C20417
:1008E000AC14BD04B1F7FDCE8C2CC1CF42FC02C0CC
:1008F0008394C8CF83948394C5CF842D867811F2D6
:10090000F7CFB70180E290E00E94C2048394821482
:10091000C0F3512CC4CF8214E0F7522C5818BFCF2B
:100920009C2CBDCF88E590E0C7CF842D867839F226
:1009300041FE06C08BE247FC8DE2B70190E0BDCFDF
:1009400080E2F9CFB70180E390E00E94C2049A945C
:10095000B6CF8FEF9FEF63CFFC01059061507040E1
:100960000110D8F7809590958E0F9F1F0895FC0178
:100970006150704001900110D8F7809590958E0FCE
:100980009F1F08950F931F93CF93DF93182F092F65
:10099000EB018B8181FD09C01FEF0FEF812F902F9D
:1009A000DF91CF911F910F91089582FF14C02E8186
:1009B0003F818C819D81281739073CF4E881F981BA
:1009C000CF0101969983888310838E819F81019640
:1009D0009F838E83E3CFE885F985812F0995892B45
:1009E000A1F3DACFFA01AA27283051F1203181F1A1
:1009F000E8946F936E7F6E5F7F4F8F4F9F4FAF4F27
:100A0000B1E03ED0B4E03CD0670F781F891F9A1F39
:100A1000A11D680F791F8A1F911DA11D6A0F711DED
:100A2000811D911DA11D20D009F468943F912AE0F9
:100A3000269F11243019305D3193DEF6CF010895E1
:100A4000462F4770405D4193B3E00FD0C9F7F6CF12
:100A5000462F4F70405D4A3318F0495D31FD4052DA
:100A6000419302D0A9F7EACFB4E0A6959795879570
:100A700077956795BA95C9F700976105710508954F
:100A80009B01AC010A2E06945795479537952795FB
:100A9000BA95C9F7620F731F841F951FA01D089593
:100AA0002F923F924F925F926F927F928F929F927E
:100AB000AF92BF92CF92DF92EF92FF920F931F936C
:100AC000CF93DF93CDB7DEB7CA1BDB0B0FB6F8941D
:100AD000DEBF0FBECDBF09942A88398848885F845D
:100AE0006E847D848C849B84AA84B984C884DF80CE
:100AF000EE80FD800C811B81AA81B981CE0FD11DB2
:100B00000FB6F894DEBF0FBECDBFED010895F89487
:020B1000FFCF15
:100B1200646C612076616C657572206573743A202D
:040B220025750A002B
:00000001FF
