:100000000C943E000C9448000C9448000C9448005A
:100010000C9448000C9448000C9448000C94480040
:100020000C9448000C9448000C9448000C94480030
:100030000C9448000C9448000C9448000C94480020
:100040000C9448000C9448000C9448000C94480010
:100050000C9448000C9448000C9448000C94480000
:100060000C9448000C9448000C9448000C944800F0
:100070000C9448000C9448000C94480011241FBEB6
:10008000CFEFD8E0DEBFCDBF0E9473000C949B0081
:100090000C9400004A9B0BC08FE19EE40197F1F79E
:1000A00000C0000089B182FB882780F9089580E0B4
:1000B0000895CF93DF93D2E0C1E00E944A008823E5
:1000C00079F0D5B98FE697E10197F1F700C000000C
:1000D000C5B98FEA96E30197F1F700C00000EDCFB4
:1000E000DF91CF9108958FEF84B91AB880E0C1E015
:1000F000D2E08111FECFD5B90E944A008823D9F3FE
:100100000E9459000E944A008111FACFC5B90E948D
:100110004A008823D9F3D5B90E944A008111FBCF48
:1001200015B80E944A008823D9F3C5B90E944A0035
:0A0130008111FBCFE0CFF894FFCF60
:00000001FF
