:100000000C943E000C9453000C9453000C94530039
:100010000C9453000C9453000C9453000C94530014
:100020000C9453000C9453000C9453000C94530004
:100030000C9453000C9453000C9453000C945300F4
:100040000C9453000C9453000C9453000C945300E4
:100050000C9453000C9453000C9453000C945300D4
:100060000C9453000C9453000C9453000C945300C4
:100070000C9453000C9453000C94530011241FBE95
:10008000CFEFD8E0DEBFCDBF11E0A0E0B1E0EAECF9
:10009000FAE002C005900D92A031B107D9F70E9495
:1000A0005E020C9463050C940000089580EA80932E
:1000B00000011092B90080E28093B800089520E812
:1000C000FC0120830C945600982F9370891305C06F
:1000D000880F806A8093000108958FEF089594EA55
:1000E00024E89093BC008091BC0087FFFCCF8091F6
:1000F00000018093BB002093BC008091BC0087FF6F
:10010000FCCF8091B900883161F784EA8093BC000C
:100110008091BC0087FFFCCF809100018093BB00E1
:1001200084E88093BC008091BC0087FFFCCF709373
:10013000BB0084E88093BC008091BC0087FFFCCFAB
:100140006093BB0084E88093BC008091BC0087FF73
:10015000FCCF8091BC0087FFFCCF84EA8093BC0079
:100160008091BC0087FFFCCF809100018F5F80935E
:10017000BB0084E88093BC008091BC0087FFFCCF6B
:1001800084E88093BC008091BC0087FFFCCF809105
:10019000BB00FA01808384E98093BC0080E008956D
:1001A00094EA34E89093BC008091BC0087FFFCCFB8
:1001B000809100018093BB003093BC008091BC0013
:1001C00087FFFCCF8091B900883161F784EA809382
:1001D000BC008091BC0087FFFCCF80910001809320
:1001E000BB0084E88093BC008091BC0087FFFCCFFB
:1001F0007093BB0084E88093BC008091BC0087FFB3
:10020000FCCF6093BB0084E88093BC008091BC006D
:1002100087FFFCCF84EA8093BC008091BC0087FFFD
:10022000FCCF809100018F5F8093BB0084E88093B6
:10023000BC008091BC0087FFFCCFFA0184EC222334
:1002400071F0213009F484E88093BC009091BC00E7
:1002500097FFFCCF9091BB0091932150F0CF84E9A0
:100260008093BC0080E0089594EA24E89093BC0059
:100270008091BC0087FFFCCF809100018093BB0080
:100280002093BC008091BC0087FFFCCF8091B90017
:10029000883161F784EA8093BC008091BC0087FFBD
:1002A000FCCF809100018093BB0084E88093BC0068
:1002B0008091BC0087FFFCCF7093BB0084E88093E3
:1002C000BC008091BC0087FFFCCF6093BB0084E83A
:1002D0008093BC008091BC0087FFFCCF4093BB00A3
:1002E00084E88093BC008091BC0087FFFCCF84E948
:1002F0008093BC0080E00895FB01E20FF11DDC015A
:100300002C9130E021503109262B372BE217F307CF
:1003100010F0F90131968E2F861B24EA34E82093E1
:10032000BC009091BC0097FFFCCF9091000190938E
:10033000BB003093BC009091BC0097FFFCCF909124
:10034000B900983161F794EA9093BC009091BC0099
:1003500097FFFCCF909100019093BB0094E890939D
:10036000BC009091BC0097FFFCCF7093BB0094E859
:100370009093BC009091BC0097FFFCCF6093BB00B2
:1003800094E89093BC009091BC0097FFFCCFFA01D9
:10039000982F24E8992359F031913093BB00209392
:1003A000BC003091BC0037FFFCCF9150F3CF94E9F3
:1003B0009093BC000895CF92DF92EF92FF921F932B
:1003C000CF93DF936C017A01122FEB01212FA7014C
:1003D000BE01C6010E947C01282F30E0C20FD31F4E
:1003E000181BE20EF31E1111F1CF80E0DF91CF91C7
:1003F0001F91FF90EF90DF90CF9008951092C5006D
:100400008FEC8093C4001092C00088E18093C100FB
:1004100086E08093C20008950C94FE018091C00094
:1004200085FFFCCF6093C60008958091C00087FFD0
:10043000FCCF8091C6000895CF92DF92EF92FF9299
:100440000F931F93CF93DF93CDB7DEB7C456D10977
:100450000FB6F894DEBF0FBECDBF6C017F936F93D4
:1004600081E091E09F938F938E010F5F1F4F1F9349
:100470000F930E9479027E0185E1E80EF11C0F9036
:100480000F900F900F900F900F90F80161918F01D6
:10049000C6010E940E020E151F05B9F7CC59DF4F99
:1004A0000FB6F894DEBF0FBECDBFDF91CF911F9185
:1004B0000F91FF90EF90DF90CF900895CF93DF934F
:1004C00000D0CDB7DEB7CE0102960E940C02CE015D
:1004D00001960E945F0010E0CE0102960E94150274
:1004E000612F70E0482FCE0101960E9434011F5FFA
:1004F000F3CFAEE0B0E0EFE7F2E00C943A050D89FF
:100500001E8986E08C831A8309838FEF9FE79E8381
:100510008D83AE01475E5F4F6F89788DCE01019666
:100520000E949C022F813885020F131FF801108250
:100530002E96E4E00C945605ABE0B0E0E2EAF2E07F
:100540000C942C057C013B018A01FC011782168268
:10055000838181FFDAC1CE0101965C01F7019381AD
:10056000F30193FD859193FF81913F01882309F465
:100570002FC1853239F493FD859193FF81913F011D
:10058000853229F4B70190E00E949E04E7CF912CB8
:10059000212C312CFFE1F31538F08B32D9F090F497
:1005A0008032D9F0833249F137FC41C020ED280F69
:1005B0002A3070F536FE24C08AE0989E200D112462
:1005C000922E0EC08D32A9F0803371F7232D216059
:1005D000322E06C0832D8260382EE32DE4603E2E3D
:1005E000F30193FD859193FF81913F018111D2CF5A
:1005F0001EC0F32DF8603F2EF3CF232D2061E8CFEE
:10060000EAE02E9E200D1124222EF32DF062F3CF6E
:100610008E3229F436FCDCC0232D2064D9CF8C36F1
:1006200021F4832D8068382EDBCF8836C9F2982FCD
:100630009F7D95549330D8F08336C9F18337E9F123
:10064000833509F068C0280122E0420E511CF801F0
:10065000C080D18036FE45C0692D70E0C6010E9481
:1006600088044C01F32DF0683F2E82010BC00C5F13
:100670001F4F9FE3998388248394912C6501F32D68
:10068000FF773F2E33FC05C0822D90E08816990637
:1006900058F1522C8114910471F5552009F45ECF64
:1006A000B70180E290E00E949E045A94F6CFF801D0
:1006B000808189830E5F1F4FDECF2801F2E04F0E4D
:1006C000511CF801C080D18036FE08C0692D70E051
:1006D000C6010E9493044C018201D1CF6FEF7FEFDE
:1006E000F7CF6FEF7FEFBACFB70180E290E00E94C3
:1006F0009E042A94C9CFF60137FC859137FE81917B
:100700006F01B70190E00E949E0451105A9421E0BD
:10071000821A9108BFCF843611F08936C1F5F801ED
:1007200037FE2CC060817181828193810C5F1F4FE5
:10073000F32DFF763F2E97FF09C090958095709519
:1007400061957F4F8F4F9F4FF0683F2E2AE030E03A
:10075000A5010E94CE04C82ECA1836FE62C0232D01
:100760002E7F422EC91408F09BC034FE05C032FC17
:1007700003C0832D8E7E482E892C55C060817181E7
:10078000072E000C880B990B0E5F1F4FD1CF8537BA
:10079000B9F4232D2F7ED22E2AE030E0F801D7FEC7
:1007A00039C060817181828193810C5F1F4FA501E7
:1007B0000E94CE04C82ECA18FD2DFF773F2ECDCF44
:1007C000932D997FD92E8F3611F148F48835B9F0E1
:1007D000F701868197812B96E2E10C9448058037DA
:1007E00051F08837A9F7D4FE03C0FD2DF460DF2E49
:1007F00020E130E0D3CFE92FE061DE2EF4CF34FEEC
:1008000003C0292F2660D22E20E132E0C7CF28E096
:1008100030E0C4CF6081718180E090E00E5F1F4FB7
:10082000C6CF8C2C432C44FE44C0FE01EC0DF11DC0
:1008300080818033B9F5942D997E492EE42DE8709E
:100840005E2E43FC44C040FE3EC0821408F044C00B
:100850002C0C922C981844FE44C0B70180E390E021
:100860000E949E0442FE07C041FC38C088E790E029
:10087000B7010E949E04C91408F440C0CA94D12C48
:10088000FFEFCF1ADF0ACA0CDB1CF60182916F0161
:10089000B70190E00E949E04AC14BD04B1F7FDCEF8
:1008A0008C2CC1CF42FC02C08394C8CF8394839424
:1008B000C5CF842D867811F2F7CFB70180E290E0A2
:1008C0000E949E0483948214C0F3512CC4CF8214DE
:1008D000E0F7522C5818BFCF9C2CBDCF88E590E094
:1008E000C7CF842D867839F241FE06C08BE247FCE3
:1008F0008DE2B70190E0BDCF80E2F9CFB70180E390
:1009000090E00E949E049A94B6CF8FEF9FEF63CF42
:10091000FC010590615070400110D8F780959095CA
:100920008E0F9F1F0895FC016150704001900110CF
:10093000D8F7809590958E0F9F1F08950F931F9362
:10094000CF93DF93182F092FEB018B8181FD09C015
:100950001FEF0FEF812F902FDF91CF911F910F91FC
:10096000089582FF14C02E813F818C819D812817BC
:1009700039073CF4E881F981CF0101969983888396
:1009800010838E819F8101969F838E83E3CFE885BC
:10099000F985812F0995892BA1F3DACFFA01AA27CE
:1009A000283051F1203181F1E8946F936E7F6E5FB2
:1009B0007F4F8F4F9F4FAF4FB1E03ED0B4E03CD060
:1009C000670F781F891F9A1FA11D680F791F8A1F43
:1009D000911DA11D6A0F711D811D911DA11D20D0AA
:1009E00009F468943F912AE0269F11243019305D64
:1009F0003193DEF6CF010895462F4770405D419355
:100A0000B3E00FD0C9F7F6CF462F4F70405D4A33A1
:100A100018F0495D31FD4052419302D0A9F7EACF69
:100A2000B4E0A6959795879577956795BA95C9F798
:100A300000976105710508959B01AC010A2E06948B
:100A40005795479537952795BA95C9F7620F731F44
:100A5000841F951FA01D08952F923F924F925F9281
:100A60006F927F928F929F92AF92BF92CF92DF92BE
:100A7000EF92FF920F931F93CF93DF93CDB7DEB723
:100A8000CA1BDB0B0FB6F894DEBF0FBECDBF0994B7
:100A90002A88398848885F846E847D848C849B840E
:100AA000AA84B984C884DF80EE80FD800C811B811C
:100AB000AA81B981CE0FD11D0FB6F894DEBF0FBE4B
:0A0AC000CDBFED010895F894FFCFBB
:100ACA00A06E756D6265722069732025750A000033
:00000001FF
