:100000000C9441000C946B000C9469000C946900F2
:100010000C9469000C9469000C9469000C946900BC
:100020000C9469000C9469000C9469000C946900AC
:100030000C9469000C9469000C9469000C9469009C
:100040000C9469000C9469000C9469000C9469008C
:100050000C94C4000C9469000C9469000C94690021
:100060000C9469000C9469000C9469000C9469006C
:100070000C9469000C9469000C946900000A080A49
:10008000040A11241FBECFEFD8E0DEBFCDBF11E0C0
:10009000A0E0B1E0EEE1FAE102C005900D92AC34CF
:1000A000B107D9F721E0ACE4B1E001C01D92A2355F
:1000B000B207E1F710E0C0E4D0E004C02197FE01F0
:1000C0000E94120ACE33D107C9F70E94BE090C94D0
:1000D000020D0C9400001F920F920FB60F92112484
:1000E0002F933F934F935F936F937F938F939F9340
:1000F000AF93BF93EF93FF93CF93DF931F92CDB74F
:10010000DEB7CE0101960E94C6078FE59AEE0197F1
:10011000F1F700C00000809101018823F9F08130DF
:1001200011F410920101809101018823D9F08130EE
:1001300021F1E09A0F90DF91CF91FF91EF91BF9164
:10014000AF919F918F917F916F915F914F913F916F
:100150002F910F900FBE0F901F90189581E0809304
:100160000101E1CF65EFCE0101960E94C80760E072
:10017000CE0101960E94C807DCCF65EFCE01019643
:100180000E94C80761E0F4CF1F920F920FB60F9242
:1001900011241F932F933F934F935F936F937F93FC
:1001A0008F939F93AF93BF93EF93FF93CF93DF937F
:1001B00000D01F92CDB7DEB7CE0103960E94C607CE
:1001C000CE0102960E948203CE0101960E94710622
:1001D000F894CE0103960E94CF07182FCE01039604
:1001E0000E94CF07682F193F49F1D0F4183F09F159
:1001F00078940F900F900F90DF91CF91FF91EF9136
:10020000BF91AF919F918F917F916F915F914F912E
:100210003F912F911F910F900FBE0F901F90189537
:100220001A3F89F01B3F21F7CE0103960E944E082A
:10023000DFCFCE0101960E949A06DACFCE01019659
:100240000E947306D5CFCE0102960E948303D0CFC1
:10025000F8948AB1806F8AB9E89AE9E6F0E0808183
:100260008160808378940895F894789408950F932A
:100270001F93CF93DF931F92CDB7DEB78C01CE01D2
:1002800001960E94F206083621E01207A0F5CE0181
:1002900001960E9499078FE798E321E081509040F2
:1002A0002040E1F700C0000066E9CE0101960E94FF
:1002B00048078FEF9AE623E0815090402040E1F715
:1002C00000C00000085611400F31110570F466E9B6
:1002D000CE0101960E9448079FE729EA83E09150EA
:1002E00020408040E1F700C000000F90DF91CF91E7
:1002F0001F910F910895073881E0180718F3CE0178
:1003000001960E94A5079FE725EB81E091502040D0
:100310008040E1F700C0000066E9CE0101960E942E
:1003200048079FEF2DEE82E0915020408040E1F79A
:10033000C7CF0F931F93CF93DF931F92CDB7DEB735
:100340008C01CE0101960E94F206003421E01207D2
:10035000A0F5CE0101960E94A5078FE795EB21E05D
:10036000815090402040E1F700C0000066E9CE01D6
:1003700001960E9448078FEF9DEE22E08150904049
:100380002040E1F700C00000005411400F3111057A
:1003900070F466E9CE0101960E9448079FE729EABA
:1003A00083E0915020408040E1F700C000000F90B2
:1003B000DF91CF911F910F9108950F3581E01807BC
:1003C00018F3CE0101960E9499079FE725EB81E083
:1003D000915020408040E1F700C0000066E9CE0166
:1003E00001960E9448079FEF2DEE82E09150204039
:1003F0008040E1F7C7CFCF93DF9300D000D0CDB7D7
:10040000DEB784B18FEF84B961E0CE0104960E941B
:100410007B05CE0103960E94A603CE0102960E94A0
:10042000F206CE0101960E94D605CE0101960E94E9
:10043000360662E0CE0103960E94AF038C0160E0B5
:10044000CE0103960E94AF038017910708F476C08F
:100450008FE59AEE0197F1F700C0000004E611E085
:10046000CE0104960E947E0562E0CE0103960E94B2
:10047000AF037C0160E0CE0103960E94AF036C01E4
:10048000043609F0CCC0CE0104960E9491059CE68A
:10049000E916F10448F4111107C08FE59AEE0197AF
:1004A000F1F700C0000011E0C6010E943701C7014A
:1004B000845791098236914098F6CE0102960E94A7
:1004C000560766E9CE0102960E9448078FEF92E533
:1004D00027E0815090402040E1F700C0000062E03A
:1004E000CE0103960E94AF035C018E159F0508F0B4
:1004F000A5C062E0CE0103960E94AF035C018E1599
:100500009F0508F09BC0CE0101960E94CE05CE014A
:1005100001960E94360668ECCE0102960E945F07A3
:100520008FEF93EC29E0815090402040E1F700C02C
:100530000000CE0102960E94560792CF07E68FCFA9
:10054000CE0102960E945607CE0104960E94A40591
:1005500010E0CE0104960E947E059FE6C916D104E4
:1005600048F4111107C08FE59AEE0197F1F700C02A
:10057000000011E0C7010E949901C6018F56910940
:100580008939914008F049C0CE0102960E94560771
:1005900066E9CE0102960E9448078FEF92E527E0B8
:1005A000815090402040E1F700C0000060E0CE01A3
:1005B00003960E94AF037C018C159D0508F06AC06C
:1005C00060E0CE0103960E94AF037C018FEF90E7BD
:1005D00022E0815090402040E1F700C00000EC1480
:1005E000FD0408F057C0CE0101960E94CE05CE0151
:1005F00001960E94360668ECCE0102960E945F07C3
:100600008FEF93EC29E0815090402040E1F700C04B
:100610000000CE0102960E94560707E621CF07365A
:1006200009F01ECF96CFCE0102960E945607CE014A
:1006300004960E94A40510E004E612CF112309F4E9
:100640000FCFCE0102960E94A5078FEF90E722E020
:10065000815090402040E1F700C00000750180E427
:10066000E81681E0F80608F06BCF66E9CE01029645
:100670000E9448079FEF26E181E191502040804091
:10068000E1F700C0000062E0CE0103960E94AF03D4
:100690007C01E5CF112309F2CE0102960E94990751
:1006A0008FEF93EC29E0815090402040E1F700C0AB
:1006B000000088E6E81681E0F80608F0B4CF66E9A5
:1006C000CE0102960E9448079FEF26E181E19150FA
:1006D00020408040E1F700C0000060E0CE010396BA
:1006E0000E94AF037C01E5CF6817790748F04111FC
:1006F00007C08FE59AEE0197F1F700C0000041E0D6
:10070000842F089508951F93CF93DF931F92CDB741
:10071000DEB7162F61E0CE0101960E947B051130F5
:1007200039F0123071F0CE0101960E94A40504C088
:10073000CE0101960E9491050F90DF91CF911F91FC
:100740000895CE0101960E947E05F6CF10927C009E
:1007500086E880937A00089510927A000895809137
:100760007C00807E80937C0080917C006770682B89
:1007700060937C0080917A00806480937A008091FD
:100780007A0084FFFCCF80917A00806180937A00A8
:10079000209178008091790090E0982F8827820F2F
:1007A000911D0895089580EA809302011092B90086
:1007B00080E28093B800089520E8FC0120830C9427
:1007C000D303982F9370891305C0880F806A809394
:1007D000020108958FEF089594EA24E89093BC00F5
:1007E0008091BC0087FFFCCF809102018093BB0009
:1007F0002093BC008091BC0087FFFCCF8091B900A2
:10080000883161F784EA8093BC008091BC0087FF47
:10081000FCCF809102018093BB0084E88093BC00F0
:100820008091BC0087FFFCCF7093BB0084E880936D
:10083000BC008091BC0087FFFCCF6093BB0084E8C4
:100840008093BC008091BC0087FFFCCF8091BC00EE
:1008500087FFFCCF84EA8093BC008091BC0087FFB7
:10086000FCCF809102018F5F8093BB0084E880936E
:10087000BC008091BC0087FFFCCF84E88093BC0063
:100880008091BC0087FFFCCF8091BB00FA01808380
:1008900084E98093BC0080E0089594EA34E8909362
:1008A000BC008091BC0087FFFCCF80910201809347
:1008B000BB003093BC008091BC0087FFFCCF8091CF
:1008C000B900883161F784EA8093BC008091BC0054
:1008D00087FFFCCF809102018093BB0084E8809366
:1008E000BC008091BC0087FFFCCF7093BB0084E804
:1008F0008093BC008091BC0087FFFCCF6093BB005D
:1009000084E88093BC008091BC0087FFFCCF84EA20
:100910008093BC008091BC0087FFFCCF80910201D6
:100920008F5F8093BB0084E88093BC008091BC0003
:1009300087FFFCCFFA0184EC222371F0213009F407
:1009400084E88093BC009091BC0097FFFCCF90910D
:10095000BB0091932150F0CF84E98093BC0080E0EC
:10096000089594EA24E89093BC008091BC0087FF2E
:10097000FCCF809102018093BB002093BC0080914A
:10098000BC0087FFFCCF8091B900883161F784EA11
:100990008093BC008091BC0087FFFCCF8091020156
:1009A0008093BB0084E88093BC008091BC0087FFEB
:1009B000FCCF7093BB0084E88093BC008091BC00A6
:1009C00087FFFCCF6093BB0084E88093BC008091DC
:1009D000BC0087FFFCCF4093BB0084E88093BC0041
:1009E0008091BC0087FFFCCF84E98093BC0080E04D
:1009F0000895FB01E20FF11DDC012C9130E0215044
:100A00003109262B372BE217F30710F0F901319645
:100A10008E2F861B24EA34E82093BC009091BC0002
:100A200097FFFCCF909102019093BB003093BC00E4
:100A30009091BC0097FFFCCF9091B900983161F77D
:100A400094EA9093BC009091BC0097FFFCCF9091EA
:100A500002019093BB0094E89093BC009091BC007D
:100A600097FFFCCF7093BB0094E89093BC009091EB
:100A7000BC0097FFFCCF6093BB0094E89093BC0050
:100A80009091BC0097FFFCCFFA01982F24E899239E
:100A900059F031913093BB002093BC003091BC00E1
:100AA00037FFFCCF9150F3CF94E99093BC000895A9
:100AB000CF92DF92EF92FF921F93CF93DF936C015F
:100AC0007A01122FEB01212FA701BE01C6010E945E
:100AD000F904282F30E0C20FD31F181BE20EF31EBB
:100AE0001111F1CF80E0DF91CF911F91FF90EF9036
:100AF000DF90CF900895FC0160830895FC01808110
:100B0000813041F028F0823039F0833039F0089597
:100B100082E082B982E085B982E088B982E08BB94F
:100B20000895FC018081813041F028F0823039F055
:100B3000833039F0089581E082B981E085B981E0A0
:100B400088B981E08BB90895FC018081813039F04A
:100B500028F0823029F0833021F0089512B815B8BA
:100B600018B81BB80895CF93DF93EC010E947E055F
:100B70008FE697E10197F1F700C00000CE010E94D7
:100B800091058FEA96E30197F1F700C00000DF912D
:100B9000CF91089517BC15BC14BC089588E085B9A1
:100BA00016BC82E484BD84E085BD08950C94CE0516
:100BB000E3E0F1E0258127BD2FEF34E34CE0215045
:100BC00030404040E1F700C00000278527BD2FEFEF
:100BD00034E34CE0215030404040E1F700C00000D9
:100BE000268D27BD2FEF34E34CE0215030404040AC
:100BF000E1F700C00000278527BD2FEF34E34CE06C
:100C0000215030404040E1F700C000000C94CA057C
:100C100023ED260F253238F4E62FF0E0EA52FF4F9D
:100C2000808187BD08950C94CA052091080127BDD5
:100C30002FE738E341E0215030404040E1F700C069
:100C400000000C94CA05CF93DF93EC010E94CA0503
:100C50002FEF80E792E0215080409040E1F700C004
:100C60000000CE01DF91CF910C94CE050F931F931E
:100C7000CF93DF93EC0103E011E0F801838587BD9A
:100C8000FFEF21EE84E0F15020408040E1F700C00A
:100C90000000CE010E942306F801828987BDFFEF84
:100CA00021EE84E0F15020408040E1F700C00000D8
:100CB000CE010E942306F801838987BDFFEF21EE54
:100CC00084E0F15020408040E1F700C00000CE01F8
:100CD0000E942306CE01DF91CF911F910F910C94BA
:100CE000CA050C94F2066436D1F058F46931E1F08B
:100CF00010F40C94CD066233A9F06B34D1F76FEB8E
:100D00000FC0653BA9F020F46C3999F76FEF05C06F
:100D10006E3C61F0673E69F76FE30C94D9066FEFA4
:100D20000C94C10660E8FCCF6FE3FACF6FE7F5CF14
:100D30006FEBF3CF6436D1F058F46931E1F010F481
:100D40000C94D3066233A9F06B34D1F76FEB0FC06C
:100D5000653BA9F020F46C3999F76FEF05C06E3C44
:100D600061F0673E69F76FE30C94E0066FEF0C9457
:100D7000C7066FE7FCCF6FE3FACF6FE7F5CF6FEBF6
:100D8000F3CF5D9A5F9880E591E00C9497095C9AA7
:100D90005E988EE491E00C9497095D985F9880E5E9
:100DA00091E00C94B0095C985E988EE491E00C940C
:100DB000B0098BB1806A8BB980E591E00C949709FA
:100DC0008BB180658BB98EE491E00C9497098AB160
:100DD000806F8AB98EE491E00E94840980E591E0F9
:100DE0000C9484090C94E7060F931F93CF938C0106
:100DF000C62F0E94C70665EB6C0FC801CF911F91EB
:100E00000F910C94C106CF93DF93EC010E94CD06A5
:100E1000CE01DF91CF910C94D3060F931F93CF9304
:100E20008C01C62F0E94E0066EEC6C0FC801CF91BA
:100E30001F910F910C94D906CF93DF93EC0168ECCE
:100E40000E94C70668ECCE010E94D9062FE781E315
:100E500097E1215080409040E1F700C00000DF9111
:100E6000CF910895CF93DF93EC0168EC0E94E006E8
:100E700068ECCE010E94C1062FE781E397E1215083
:100E800080409040E1F700C00000DF91CF910895CD
:100E9000CF93C62F80E38BB98EE491E00E9497092F
:100EA0006C2F80E591E0CF910C9497091BB880E5F9
:100EB00091E00E94B0098EE491E00C94B009CF93C8
:100EC000C62F80EF8BB98EE491E00E9497096C2FBA
:100ED00080E591E0CF910C94970980EB8BB968EC99
:100EE0008EE491E00E94970968EC80E591E00E9411
:100EF00097092FE781E397E1215080409040E1F787
:100F000000C00000089580E78BB968EC8EE491E0A2
:100F10000E94970968EC80E591E00E9497092FE70D
:100F200081E397E1215080409040E1F700C000004C
:100F3000089580EB8BB968E78EE491E00E949709F1
:100F400064E680E591E00C94970980E78BB962E84C
:100F500080E591E00E94970964E68EE491E00C94AC
:100F600097099091C00095FFFCCF8093C60008952B
:100F70001092C5008FEC8093C4001092C00088E9E5
:100F80008093C10086E08093C20008950C94B80756
:100F90008091C00085FFFCCF6093C60008958091CA
:100FA000C00087FFFCCF8091C6000895EF92FF92AA
:100FB0000F931F93CF93DF93CDB7DEB7C456D109FC
:100FC0000FB6F894DEBF0FBECDBF7F936F938DE356
:100FD00091E09F938F938E010F5F1F4F1F930F938D
:100FE0000E94180A7E0185E1E80EF11C0F900F9017
:100FF0000F900F900F900F90F80181918F010E9438
:10100000B1070E151F05C1F7CC59DF4F0FB6F89485
:10101000DEBF0FBECDBFDF91CF911F910F91FF902B
:10102000EF900895EF92FF920F931F93CF93DF936A
:10103000CDB7DEB7C456D1090FB6F894DEBF0FBEE8
:10104000CDBF1F926F938DE391E09F938F938E019D
:101050000F5F1F4F1F930F930E94180A7E0185E1B7
:10106000E80EF11C0F900F900F900F900F900F90C3
:10107000F80181918F010E94B1070E151F05C1F77C
:10108000CC59DF4F0FB6F894DEBF0FBECDBFDF9156
:10109000CF911F910F91FF90EF900895CF92DF9223
:1010A000EF92FF920F931F93CF93DF93CDB7DEB7ED
:1010B000E2970FB6F894DEBF0FBECDBFCE014A96C1
:1010C0000E9453098E010F5F1F4F6E018BE0C80E07
:1010D000D11C7801BE01665E7F4FC7010E947B096B
:1010E000F80181918F010E94B1070C151D0591F740
:1010F0006E01F1E1CF0ED11CBE01665E7F4FC701CC
:101100000E947B09F80181918F010E94B1070C15A3
:101110001D0591F7BE01665E7F4FC7010E947B09E6
:1011200089890E94B107BE01665E7F4FC7010E9498
:101130007B098A890E94B1078E010D5E1F4F6E01E7
:10114000F8E1CF0ED11CBE01665E7F4FC7010E9441
:101150007B09F80181918F010E94B107C016D10669
:1011600091F7BE01665E7F4FC7010E947B09888DA3
:101170000E94B107BE01665E7F4FC7010E947B09D6
:10118000898D0E94B107E2960FB6F894DEBF0FBEBC
:10119000CDBFDF91CF911F910F91FF90EF90DF9026
:1011A000CF9008950F931F93CF93DF931F92CDB7E6
:1011B000DEB7162FCE0101960E94A603112309F473
:1011C0004CC062E0CE0101960E94AF038C0186EF15
:1011D0000E94B1070235110508F447C00435110516
:1011E00008F445C00337110508F443C00138110560
:1011F00008F441C00F38110508F43FC0043A110546
:10120000F0F10B3B1105E8F10E3C1105E0F1013E58
:101210001105D8F10D3E1105D0F1023081E018071B
:10122000C0F1023181E01807B0F1013381E0180705
:10123000A0F1073881E0180790F10A32124088F1D6
:1012400085E00E94B107CE0101960E94AC030F9089
:10125000DF91CF911F910F91089560E0CE0101962B
:101260000E94AF038C0187EFB3CF80E5EACF8BE418
:10127000E8CF86E4E6CF81E4E4CF8CE3E2CF87E3F6
:10128000E0CF82E3DECF8DE2DCCF88E2DACF83E20B
:10129000D8CF8EE1D6CF89E1D4CF84E1D2CF8FE011
:1012A000D0CF8AE0CECFCF93DF93EC018AE0E8E2A3
:1012B000F1E0DE0101900D928A95E1F786E0E2E32C
:1012C000F1E0DE011A9601900D928A95E1F782EF26
:1012D000888B82E0898B85E0E8E3F1E0DE015296BD
:1012E00001900D928A95E1F784EF8F8B81E0888FD2
:1012F000DF91CF91089529E1FB01DC0101900D926E
:101300002A95E1F7089508951092850010928400BF
:10131000E1E8F0E0808184608083E0E8F0E08081B3
:10132000816080830895FC0160830C948409FC0132
:10133000808170E0882351F08091800080688093E4
:1013400080007093890060938800089580918000E8
:1013500080628093800070938B0060938A00089570
:10136000FC018081882331F0809180008F77809309
:1013700080000895809180008F7DF9CFCF93DF9317
:101380001F92CDB7DEB74CE451E060E070E08DE431
:1013900091E00E94EC0380914C01811117C081E023
:1013A00080934C0140914C0160E070E08DE491E04D
:1013B0000E94B10480914C01882359F08130F1F0F2
:1013C00080E090E00F90DF91CF91089510924C0152
:1013D000E9CF8FEF84B90E9434010E942801CE0129
:1013E00001960E94C60760E0CE0101960E94D208D5
:1013F00061E0CE0101960E94D208F5CF0E94FB0168
:101400008DE491E00C94DC038DE491E00C94D20324
:1014100061E080E591E00E94930960E08EE491E054
:101420000C949309EE0FFF1F0590F491E02D0994A1
:10143000AEE0B0E0EEE1FAE00C94D90C0D891E8923
:1014400086E08C831A8309838FEF9FE79E838D83C9
:10145000AE01475E5F4F6F89788DCE0101960E9485
:101460003B0A2F813885020F131FF80110822E9638
:10147000E4E00C94F50CABE0B0E0E1E4FAE00C94AD
:10148000CB0C7C013B018A01FC011782168283810F
:1014900081FFDAC1CE0101965C01F7019381F3016E
:1014A00093FD859193FF81913F01882309F42FC11A
:1014B000853239F493FD859193FF81913F01853207
:1014C00029F4B70190E00E943D0CE7CF912C212C2C
:1014D000312CFFE1F31538F08B32D9F090F48032E3
:1014E000D9F0833249F137FC41C020ED280F2A3072
:1014F00070F536FE24C08AE0989E200D1124922EAD
:101500000EC08D32A9F0803371F7232D2160322E69
:1015100006C0832D8260382EE32DE4603E2EF30159
:1015200093FD859193FF81913F018111D2CF1EC020
:10153000F32DF8603F2EF3CF232D2061E8CFEAE0B2
:101540002E9E200D1124222EF32DF062F3CF8E3229
:1015500029F436FCDCC0232D2064D9CF8C3621F44D
:10156000832D8068382EDBCF8836C9F2982F9F7D77
:1015700095549330D8F08336C9F18337E9F1833538
:1015800009F068C0280122E0420E511CF801C08019
:10159000D18036FE45C0692D70E0C6010E94270C3F
:1015A0004C01F32DF0683F2E82010BC00C5F1F4FE2
:1015B0009FE3998388248394912C6501F32DFF7711
:1015C0003F2E33FC05C0822D90E08816990658F115
:1015D000522C8114910471F5552009F45ECFB701A6
:1015E00080E290E00E943D0C5A94F6CFF801808191
:1015F00089830E5F1F4FDECF2801F2E04F0E511C92
:10160000F801C080D18036FE08C0692D70E0C601A7
:101610000E94320C4C018201D1CF6FEF7FEFF7CFE8
:101620006FEF7FEFBACFB70180E290E00E943D0CF0
:101630002A94C9CFF60137FC859137FE81916F015D
:10164000B70190E00E943D0C51105A9421E0821A9B
:101650009108BFCF843611F08936C1F5F80137FE05
:101660002CC060817181828193810C5F1F4FF32DAB
:10167000FF763F2E97FF09C09095809570956195F4
:101680007F4F8F4F9F4FF0683F2E2AE030E0A5013B
:101690000E946D0CC82ECA1836FE62C0232D2E7F04
:1016A000422EC91408F09BC034FE05C032FC03C0B2
:1016B000832D8E7E482E892C55C060817181072E26
:1016C000000C880B990B0E5F1F4FD1CF8537B9F4F3
:1016D000232D2F7ED22E2AE030E0F801D7FE39C02C
:1016E00060817181828193810C5F1F4FA5010E94EF
:1016F0006D0CC82ECA18FD2DFF773F2ECDCF932D30
:10170000997FD92E8F3611F148F48835B9F0F70159
:10171000868197812B96E2E10C94E70C803751F09B
:101720008837A9F7D4FE03C0FD2DF460DF2E20E139
:1017300030E0D3CFE92FE061DE2EF4CF34FE03C0DA
:10174000292F2660D22E20E132E0C7CF28E030E0FA
:10175000C4CF6081718180E090E00E5F1F4FC6CFE3
:101760008C2C432C44FE44C0FE01EC0DF11D808105
:101770008033B9F5942D997E492EE42DE8705E2EC4
:1017800043FC44C040FE3EC0821408F044C02C0C10
:10179000922C981844FE44C0B70180E390E00E9468
:1017A0003D0C42FE07C041FC38C088E790E0B7011D
:1017B0000E943D0CC91408F440C0CA94D12CFFEF1C
:1017C000CF1ADF0ACA0CDB1CF60182916F01B70148
:1017D00090E00E943D0CAC14BD04B1F7FDCE8C2C02
:1017E000C1CF42FC02C08394C8CF83948394C5CFF9
:1017F000842D867811F2F7CFB70180E290E00E9445
:101800003D0C83948214C0F3512CC4CF8214E0F7B2
:10181000522C5818BFCF9C2CBDCF88E590E0C7CF85
:10182000842D867839F241FE06C08BE247FC8DE2BA
:10183000B70190E0BDCF80E2F9CFB70180E390E03F
:101840000E943D0C9A94B6CF8FEF9FEF63CFFC01BF
:101850000590615070400110D8F7809590958E0FDB
:101860009F1F0895FC016150704001900110D8F74E
:10187000809590958E0F9F1F08950F931F93CF9380
:10188000DF93182F092FEB018B8181FD09C01FEF1A
:101890000FEF812F902FDF91CF911F910F9108951E
:1018A00082FF14C02E813F818C819D8128173907CA
:1018B0003CF4E881F981CF010196998388831083F4
:1018C0008E819F8101969F838E83E3CFE885F98582
:1018D000812F0995892BA1F3DACFFA01AA272830A5
:1018E00051F1203181F1E8946F936E7F6E5F7F4FED
:1018F0008F4F9F4FAF4FB1E03ED0B4E03CD0670F69
:10190000781F891F9A1FA11D680F791F8A1F911DBB
:10191000A11D6A0F711D811D911DA11D20D009F40B
:1019200068943F912AE0269F11243019305D31934D
:10193000DEF6CF010895462F4770405D4193B3E036
:101940000FD0C9F7F6CF462F4F70405D4A3318F0DD
:10195000495D31FD4052419302D0A9F7EACFB4E08E
:10196000A6959795879577956795BA95C9F7009746
:101970006105710508959B01AC010A2E06945795E7
:10198000479537952795BA95C9F7620F731F841F3E
:10199000951FA01D08952F923F924F925F926F92D4
:1019A0007F928F929F92AF92BF92CF92DF92EF92EF
:1019B000FF920F931F93CF93DF93CDB7DEB7CA1B70
:1019C000DB0B0FB6F894DEBF0FBECDBF09942A889B
:1019D000398848885F846E847D848C849B84AA8443
:1019E000B984C884DF80EE80FD800C811B81AA81D0
:1019F000B981CE0FD11D0FB6F894DEBF0FBECDBF9B
:101A0000ED01089510E0C0E4D0E004C0FE010E94A2
:0E1A1000120A2196C134D107C9F7F894FFCF0E
:101A1E006401A08E867F77716A645F5954504B477C
:101A2E00433F3C3835322F2D2A28262422201E1CD7
:101A3E001B19181615141312F0526F626F7462612F
:101A4E006279F13237313037F331382D316E756DB1
:0C1A5E006265722069732025750A000083
:00000001FF
