:100000000C943E000C9453000C9453000C94530039
:100010000C9453000C9453000C9453000C94530014
:100020000C9453000C9453000C9453000C94530004
:100030000C9453000C9453000C9453000C945300F4
:100040000C9453000C9453000C9453000C945300E4
:100050000C9453000C9453000C9453000C945300D4
:100060000C9453000C9453000C9453000C945300C4
:100070000C9453000C9453000C94530011241FBE95
:10008000CFEFD8E0DEBFCDBF11E0A0E0B1E0E2E30A
:10009000F7E002C005900D92AE30B107D9F70E948B
:1000A000A6000C9497030C9400001092C5008FECEE
:1000B0008093C4001092C00088E18093C10086E064
:1000C0008093C20008959091C00095FFFCCF80936B
:1000D000C6000895EF92FF920F931F93CF93DF9383
:1000E000CDB7DEB7C456D1090FB6F894DEBF0FBE48
:1000F000CDBF9F938F9380E091E09F938F938E016C
:100100000F5F1F4F1F930F930E94AD007E0185E18B
:10011000E80EF11C0F900F900F900F900F900F9022
:10012000F80181918F010E9463000E151F05C1F730
:10013000CC59DF4F0FB6F894DEBF0FBECDBFDF91B5
:10014000CF911F910F91FF90EF9008950E9455005D
:100150008DE290E00E946A00FBCFAEE0B0E0E3EBFE
:10016000F0E00C946E030D891E8986E08C831A835F
:1001700009838FEF9FE79E838D83AE01475E5F4FBC
:100180006F89788DCE0101960E94D0002F8138852D
:10019000020F131FF80110822E96E4E00C948A03DC
:1001A000ABE0B0E0E6EDF0E00C9460037C013B01D5
:1001B0008A01FC0117821682838181FFDAC1CE0198
:1001C00001965C01F7019381F30193FD859193FF03
:1001D00081913F01882309F42FC1853239F493FDC1
:1001E000859193FF81913F01853229F4B70190E019
:1001F0000E94D202E7CF912C212C312CFFE1F31584
:1002000038F08B32D9F090F48032D9F0833249F152
:1002100037FC41C020ED280F2A3070F536FE24C08F
:100220008AE0989E200D1124922E0EC08D32A9F0E6
:10023000803371F7232D2160322E06C0832D82601A
:10024000382EE32DE4603E2EF30193FD859193FF5C
:1002500081913F018111D2CF1EC0F32DF8603F2E56
:10026000F3CF232D2061E8CFEAE02E9E200D11244C
:10027000222EF32DF062F3CF8E3229F436FCDCC04F
:10028000232D2064D9CF8C3621F4832D8068382E1D
:10029000DBCF8836C9F2982F9F7D95549330D8F0E4
:1002A0008336C9F18337E9F1833509F068C0280145
:1002B00022E0420E511CF801C080D18036FE45C0BC
:1002C000692D70E0C6010E94BC024C01F32DF0685C
:1002D0003F2E82010BC00C5F1F4F9FE39983882440
:1002E0008394912C6501F32DFF773F2E33FC05C0DD
:1002F000822D90E08816990658F1522C81149104B1
:1003000071F5552009F45ECFB70180E290E00E94BC
:10031000D2025A94F6CFF801808189830E5F1F4F75
:10032000DECF2801F2E04F0E511CF801C080D180D1
:1003300036FE08C0692D70E0C6010E94C7024C015C
:100340008201D1CF6FEF7FEFF7CF6FEF7FEFBACFA3
:10035000B70180E290E00E94D2022A94C9CFF60150
:1003600037FC859137FE81916F01B70190E00E94C3
:10037000D20251105A9421E0821A9108BFCF8436DC
:1003800011F08936C1F5F80137FE2CC0608171810A
:10039000828193810C5F1F4FF32DFF763F2E97FFD5
:1003A00009C090958095709561957F4F8F4F9F4FB5
:1003B000F0683F2E2AE030E0A5010E940203C82E1B
:1003C000CA1836FE62C0232D2E7F422EC91408F0B3
:1003D0009BC034FE05C032FC03C0832D8E7E482EA8
:1003E000892C55C060817181072E000C880B990BF8
:1003F0000E5F1F4FD1CF8537B9F4232D2F7ED22E1C
:100400002AE030E0F801D7FE39C060817181828135
:1004100093810C5F1F4FA5010E940203C82ECA18CA
:10042000FD2DFF773F2ECDCF932D997FD92E8F367F
:1004300011F148F48835B9F0F701868197812B9640
:10044000E2E10C947C03803751F08837A9F7D4FEA1
:1004500003C0FD2DF460DF2E20E130E0D3CFE92F83
:10046000E061DE2EF4CF34FE03C0292F2660D22EA9
:1004700020E132E0C7CF28E030E0C4CF6081718155
:1004800080E090E00E5F1F4FC6CF8C2C432C44FEC3
:1004900044C0FE01EC0DF11D80818033B9F5942D2F
:1004A000997E492EE42DE8705E2E43FC44C040FE48
:1004B0003EC0821408F044C02C0C922C981844FEC4
:1004C00044C0B70180E390E00E94D20242FE07C020
:1004D00041FC38C088E790E0B7010E94D202C914FD
:1004E00008F440C0CA94D12CFFEFCF1ADF0ACA0C1F
:1004F000DB1CF60182916F01B70190E00E94D202ED
:10050000AC14BD04B1F7FDCE8C2CC1CF42FC02C0AF
:100510008394C8CF83948394C5CF842D867811F2B9
:10052000F7CFB70180E290E00E94D2028394821458
:10053000C0F3512CC4CF8214E0F7522C5818BFCF0F
:100540009C2CBDCF88E590E0C7CF842D867839F20A
:1005500041FE06C08BE247FC8DE2B70190E0BDCFC3
:1005600080E2F9CFB70180E390E00E94D2029A9432
:10057000B6CF8FEF9FEF63CFFC01059061507040C5
:100580000110D8F7809590958E0F9F1F0895FC015C
:100590006150704001900110D8F7809590958E0FB2
:1005A0009F1F08950F931F93CF93DF93182F092F49
:1005B000EB018B8181FD09C01FEF0FEF812F902F81
:1005C000DF91CF911F910F91089582FF14C02E816A
:1005D0003F818C819D81281739073CF4E881F9819E
:1005E000CF0101969983888310838E819F81019624
:1005F0009F838E83E3CFE885F985812F0995892B29
:10060000A1F3DACFFA01AA27283051F1203181F184
:10061000E8946F936E7F6E5F7F4F8F4F9F4FAF4F0A
:10062000B1E03ED0B4E03CD0670F781F891F9A1F1D
:10063000A11D680F791F8A1F911DA11D6A0F711DD1
:10064000811D911DA11D20D009F468943F912AE0DD
:10065000269F11243019305D3193DEF6CF010895C5
:10066000462F4770405D4193B3E00FD0C9F7F6CFF6
:10067000462F4F70405D4A3318F0495D31FD4052BE
:10068000419302D0A9F7EACFB4E0A6959795879554
:1006900077956795BA95C9F7009761057105089533
:1006A0009B01AC010A2E06945795479537952795DF
:1006B000BA95C9F7620F731F841F951FA01D089577
:1006C0002F923F924F925F926F927F928F929F9262
:1006D000AF92BF92CF92DF92EF92FF920F931F9350
:1006E000CF93DF93CDB7DEB7CA1BDB0B0FB6F89401
:1006F000DEBF0FBECDBF09942A88398848885F8441
:100700006E847D848C849B84AA84B984C884DF80B1
:10071000EE80FD800C811B81AA81B981CE0FD11D95
:100720000FB6F894DEBF0FBECDBFED010895F8946B
:02073000FFCFF9
:0E0732006E756D6265722069732025750A0070
:00000001FF
